{
  "_format": "hh-sol-artifact-1",
  "contractName": "TwitterContract",
  "sourceName": "contracts/TwitterContract.sol",
  "abi": [
    {
      "anonymous": false,
      "inputs": [
        {
          "indexed": false,
          "internalType": "address",
          "name": "recipient",
          "type": "address"
        },
        {
          "indexed": false,
          "internalType": "uint256",
          "name": "tweetId",
          "type": "uint256"
        }
      ],
      "name": "AddTweet",
      "type": "event"
    },
    {
      "anonymous": false,
      "inputs": [
        {
          "indexed": false,
          "internalType": "uint256",
          "name": "tweetId",
          "type": "uint256"
        },
        {
          "indexed": false,
          "internalType": "bool",
          "name": "isDeleted",
          "type": "bool"
        }
      ],
      "name": "DeleteTweet",
      "type": "event"
    },
    {
      "inputs": [
        {
          "internalType": "string",
          "name": "tweetText",
          "type": "string"
        },
        {
          "internalType": "bool",
          "name": "isDeleted",
          "type": "bool"
        }
      ],
      "name": "addTweet",
      "outputs": [],
      "stateMutability": "nonpayable",
      "type": "function"
    },
    {
      "inputs": [
        {
          "internalType": "uint256",
          "name": "tweetId",
          "type": "uint256"
        },
        {
          "internalType": "bool",
          "name": "isDeleted",
          "type": "bool"
        }
      ],
      "name": "deleteTweet",
      "outputs": [],
      "stateMutability": "nonpayable",
      "type": "function"
    },
    {
      "inputs": [],
      "name": "getAllTweets",
      "outputs": [
        {
          "components": [
            {
              "internalType": "uint256",
              "name": "id",
              "type": "uint256"
            },
            {
              "internalType": "address",
              "name": "username",
              "type": "address"
            },
            {
              "internalType": "string",
              "name": "tweetText",
              "type": "string"
            },
            {
              "internalType": "bool",
              "name": "isDeleted",
              "type": "bool"
            }
          ],
          "internalType": "struct TwitterContract.Tweet[]",
          "name": "",
          "type": "tuple[]"
        }
      ],
      "stateMutability": "view",
      "type": "function"
    },
    {
      "inputs": [],
      "name": "getMyTweets",
      "outputs": [
        {
          "components": [
            {
              "internalType": "uint256",
              "name": "id",
              "type": "uint256"
            },
            {
              "internalType": "address",
              "name": "username",
              "type": "address"
            },
            {
              "internalType": "string",
              "name": "tweetText",
              "type": "string"
            },
            {
              "internalType": "bool",
              "name": "isDeleted",
              "type": "bool"
            }
          ],
          "internalType": "struct TwitterContract.Tweet[]",
          "name": "",
          "type": "tuple[]"
        }
      ],
      "stateMutability": "view",
      "type": "function"
    }
  ],
  "bytecode": "0x608060405234801561001057600080fd5b50611277806100206000396000f3fe608060405234801561001057600080fd5b506004361061004c5760003560e01c80635325613514610051578063aefedbc21461006f578063e580339f1461008d578063f0312a37146100a9575b600080fd5b6100596100c5565b6040516100669190610f49565b60405180910390f35b6100776104b1565b6040516100849190610f49565b60405180910390f35b6100a760048036038101906100a29190610d11565b610907565b005b6100c360048036038101906100be9190610d65565b610a94565b005b60606000808054905067ffffffffffffffff81111561010d577f4e487b7100000000000000000000000000000000000000000000000000000000600052604160045260246000fd5b60405190808252806020026020018201604052801561014657816020015b610133610b9c565b81526020019060019003908161012b5790505b5090506000805b600080549050811015610385576000151560008281548110610198577f4e487b7100000000000000000000000000000000000000000000000000000000600052603260045260246000fd5b906000526020600020906004020160030160009054906101000a900460ff161515141561037257600081815481106101f9577f4e487b7100000000000000000000000000000000000000000000000000000000600052603260045260246000fd5b9060005260206000209060040201604051806080016040529081600082015481526020016001820160009054906101000a900473ffffffffffffffffffffffffffffffffffffffff1673ffffffffffffffffffffffffffffffffffffffff1673ffffffffffffffffffffffffffffffffffffffff168152602001600282018054610282906110c9565b80601f01602080910402602001604051908101604052809291908181526020018280546102ae906110c9565b80156102fb5780601f106102d0576101008083540402835291602001916102fb565b820191906000526020600020905b8154815290600101906020018083116102de57829003601f168201915b505050505081526020016003820160009054906101000a900460ff161515151581525050838381518110610358577f4e487b7100000000000000000000000000000000000000000000000000000000600052603260045260246000fd5b6020026020010181905250818061036e9061112c565b9250505b808061037d9061112c565b91505061014d565b5060008167ffffffffffffffff8111156103c8577f4e487b7100000000000000000000000000000000000000000000000000000000600052604160045260246000fd5b60405190808252806020026020018201604052801561040157816020015b6103ee610b9c565b8152602001906001900390816103e65790505b50905060005b828110156104a757838181518110610448577f4e487b7100000000000000000000000000000000000000000000000000000000600052603260045260246000fd5b6020026020010151828281518110610489577f4e487b7100000000000000000000000000000000000000000000000000000000600052603260045260246000fd5b6020026020010181905250808061049f9061112c565b915050610407565b5080935050505090565b60606000808054905067ffffffffffffffff8111156104f9577f4e487b7100000000000000000000000000000000000000000000000000000000600052604160045260246000fd5b60405190808252806020026020018201604052801561053257816020015b61051f610b9c565b8152602001906001900390816105175790505b5090506000805b6000805490508110156107db573373ffffffffffffffffffffffffffffffffffffffff166001600083815260200190815260200160002060009054906101000a900473ffffffffffffffffffffffffffffffffffffffff1673ffffffffffffffffffffffffffffffffffffffff16148015610610575060001515600082815481106105ed577f4e487b7100000000000000000000000000000000000000000000000000000000600052603260045260246000fd5b906000526020600020906004020160030160009054906101000a900460ff161515145b156107c8576000818154811061064f577f4e487b7100000000000000000000000000000000000000000000000000000000600052603260045260246000fd5b9060005260206000209060040201604051806080016040529081600082015481526020016001820160009054906101000a900473ffffffffffffffffffffffffffffffffffffffff1673ffffffffffffffffffffffffffffffffffffffff1673ffffffffffffffffffffffffffffffffffffffff1681526020016002820180546106d8906110c9565b80601f0160208091040260200160405190810160405280929190818152602001828054610704906110c9565b80156107515780601f1061072657610100808354040283529160200191610751565b820191906000526020600020905b81548152906001019060200180831161073457829003601f168201915b505050505081526020016003820160009054906101000a900460ff1615151515815250508383815181106107ae577f4e487b7100000000000000000000000000000000000000000000000000000000600052603260045260246000fd5b602002602001018190525081806107c49061112c565b9250505b80806107d39061112c565b915050610539565b5060008167ffffffffffffffff81111561081e577f4e487b7100000000000000000000000000000000000000000000000000000000600052604160045260246000fd5b60405190808252806020026020018201604052801561085757816020015b610844610b9c565b81526020019060019003908161083c5790505b50905060005b828110156108fd5783818151811061089e577f4e487b7100000000000000000000000000000000000000000000000000000000600052603260045260246000fd5b60200260200101518282815181106108df577f4e487b7100000000000000000000000000000000000000000000000000000000600052603260045260246000fd5b602002602001018190525080806108f59061112c565b91505061085d565b5080935050505090565b600080805490509050600060405180608001604052808381526020013373ffffffffffffffffffffffffffffffffffffffff16815260200185815260200184151581525090806001815401808255809150506001900390600052602060002090600402016000909190919091506000820151816000015560208201518160010160006101000a81548173ffffffffffffffffffffffffffffffffffffffff021916908373ffffffffffffffffffffffffffffffffffffffff16021790555060408201518160020190805190602001906109e1929190610bdc565b5060608201518160030160006101000a81548160ff0219169083151502179055505050336001600083815260200190815260200160002060006101000a81548173ffffffffffffffffffffffffffffffffffffffff021916908373ffffffffffffffffffffffffffffffffffffffff1602179055507f8b2db9b424f26463510ef5b02c16f2465836b52081b51d2112ec76102053bdea3382604051610a87929190610f20565b60405180910390a1505050565b3373ffffffffffffffffffffffffffffffffffffffff166001600084815260200190815260200160002060009054906101000a900473ffffffffffffffffffffffffffffffffffffffff1673ffffffffffffffffffffffffffffffffffffffff161415610b98578060008381548110610b36577f4e487b7100000000000000000000000000000000000000000000000000000000600052603260045260246000fd5b906000526020600020906004020160030160006101000a81548160ff0219169083151502179055507f2430f837dd2fb40e08c064be9db3d0cf2a7a21f8fe716a2a41787dafc66a7e2a8282604051610b8f929190610f6b565b60405180910390a15b5050565b604051806080016040528060008152602001600073ffffffffffffffffffffffffffffffffffffffff168152602001606081526020016000151581525090565b828054610be8906110c9565b90600052602060002090601f016020900481019282610c0a5760008555610c51565b82601f10610c2357805160ff1916838001178555610c51565b82800160010185558215610c51579182015b82811115610c50578251825591602001919060010190610c35565b5b509050610c5e9190610c62565b5090565b5b80821115610c7b576000816000905550600101610c63565b5090565b6000610c92610c8d84610fb9565b610f94565b905082815260208101848484011115610caa57600080fd5b610cb5848285611087565b509392505050565b600081359050610ccc81611213565b92915050565b600082601f830112610ce357600080fd5b8135610cf3848260208601610c7f565b91505092915050565b600081359050610d0b8161122a565b92915050565b60008060408385031215610d2457600080fd5b600083013567ffffffffffffffff811115610d3e57600080fd5b610d4a85828601610cd2565b9250506020610d5b85828601610cbd565b9150509250929050565b60008060408385031215610d7857600080fd5b6000610d8685828601610cfc565b9250506020610d9785828601610cbd565b9150509250929050565b6000610dad8383610e9f565b905092915050565b610dbe8161103f565b82525050565b610dcd8161103f565b82525050565b6000610dde82610ffa565b610de8818561101d565b935083602082028501610dfa85610fea565b8060005b85811015610e365784840389528151610e178582610da1565b9450610e2283611010565b925060208a01995050600181019050610dfe565b50829750879550505050505092915050565b610e5181611051565b82525050565b610e6081611051565b82525050565b6000610e7182611005565b610e7b818561102e565b9350610e8b818560208601611096565b610e9481611202565b840191505092915050565b6000608083016000830151610eb76000860182610f02565b506020830151610eca6020860182610db5565b5060408301518482036040860152610ee28282610e66565b9150506060830151610ef76060860182610e48565b508091505092915050565b610f0b8161107d565b82525050565b610f1a8161107d565b82525050565b6000604082019050610f356000830185610dc4565b610f426020830184610f11565b9392505050565b60006020820190508181036000830152610f638184610dd3565b905092915050565b6000604082019050610f806000830185610f11565b610f8d6020830184610e57565b9392505050565b6000610f9e610faf565b9050610faa82826110fb565b919050565b6000604051905090565b600067ffffffffffffffff821115610fd457610fd36111d3565b5b610fdd82611202565b9050602081019050919050565b6000819050602082019050919050565b600081519050919050565b600081519050919050565b6000602082019050919050565b600082825260208201905092915050565b600082825260208201905092915050565b600061104a8261105d565b9050919050565b60008115159050919050565b600073ffffffffffffffffffffffffffffffffffffffff82169050919050565b6000819050919050565b82818337600083830152505050565b60005b838110156110b4578082015181840152602081019050611099565b838111156110c3576000848401525b50505050565b600060028204905060018216806110e157607f821691505b602082108114156110f5576110f46111a4565b5b50919050565b61110482611202565b810181811067ffffffffffffffff82111715611123576111226111d3565b5b80604052505050565b60006111378261107d565b91507fffffffffffffffffffffffffffffffffffffffffffffffffffffffffffffffff82141561116a57611169611175565b5b600182019050919050565b7f4e487b7100000000000000000000000000000000000000000000000000000000600052601160045260246000fd5b7f4e487b7100000000000000000000000000000000000000000000000000000000600052602260045260246000fd5b7f4e487b7100000000000000000000000000000000000000000000000000000000600052604160045260246000fd5b6000601f19601f8301169050919050565b61121c81611051565b811461122757600080fd5b50565b6112338161107d565b811461123e57600080fd5b5056fea264697066735822122012d37148bb33b386a6c70117bb6302c8c239ec9b06cf1fdc43de7c74683ef03964736f6c63430008040033",
  "linkReferences": {},
  "deployedLinkReferences": {}
}